:100000000C947A000C948C000C9451030C948C008A
:100010000C948C000C948C000C948C000C948C0030
:100020000C948C000C948C000C948C000C948C0020
:100030000C948C000C948C000C948C000C948C0010
:100040000C948C000C948C000C948C000C948C0000
:100050000C948C0060016001600160016001650129
:1000600065016501650165016C016C016C016C0144
:100070006C01730173017301730173017A017A01D9
:100080007A017A017A018101810181018101810175
:10009000880188018801880188018F018F018F0103
:1000A0008F018F01960196019601960196019D019F
:1000B0009D019D019D019D01A401A401A401A40134
:1000C000A401AB01AB01AB01AB01AB01C101C901A3
:1000D000D101DA01E201EA01F201FA0102020A02A7
:1000E00012021A02A702B002B902C202CB02D40263
:1000F000DD02E60211241FBECFE5D8E0DEBFCDBF92
:1001000020E0A0E6B0E001C01D92A336B207E1F7FF
:100110000E94D2030C94F6060C94000088E480B987
:10012000089516BE94EA96BF06B607FEFDCF91B1BC
:10013000987F983079F483B984E886BF06B607FEC5
:10014000FDCF91B1987F983139F081E0903429F456
:1001500080E0089581E0089580E0089583B984E8FF
:1001600086BF06B607FEFDCF91B1987F81E0983239
:1001700009F480E0089584EC86BF06B607FEFDCF43
:1001800083B1089584E886BF06B607FEFDCF83B12C
:10019000089584E986BF0895982F92959F70990FCE
:1001A000292F220F220F920F8F70890F08959DEC37
:1001B000899F912D1124969596959695392F330FF9
:1001C000232F220F220F230F821B20E1929F800DED
:1001D000112408951F93CF93DF938C3010F5D42F03
:1001E000C62F222329F00E94D700182F106604C0C2
:1001F0000E94D700182F106480ED0E94910080E0CB
:100200000E94AE008D2F0E94D7000E94AE008C2F5E
:100210000E94D7000E94AE00812F0E94AE000E9473
:10022000C900DF91CF911F910895CF92DF92EF9295
:10023000FF920F931F93CF93DF937C01EB016A0131
:10024000890180ED0E94910080E00E94AE000E9432
:10025000C90081ED0E9491000E94BB000E94CC0069
:10026000F60180830E94BB000E94CC0088830E941C
:10027000C200C82F0E94C9008C2F8F710E94CC0031
:10028000F7018083C5FF04C081E0F801808302C0CC
:10029000F8011082DF91CF911F910F91FF90EF90A5
:1002A000DF90CF900895CF93DF93EB0190E08C33F4
:1002B000910508F056C0FC01E65DFF4F0C9429063D
:1002C0008FEF888389838A834CC08FEF88838BE28A
:1002D000898381EE8A8345C083ED88838FEF89838C
:1002E00081EE8A833EC08FEF888380E1898381EE2F
:1002F0008A8337C080EC88838FEF898381EE8A837D
:1003000030C080EC88838BE2898381EE8A8329C0A8
:100310008FE388838FEF898381E28A8322C080EC18
:1003200088838BE289838CEF8A831BC080EC88836F
:100330008FEF89838CEF8A8314C08FEF888380E1ED
:1003400089838CEF8A830DC083ED88838FEF898347
:100350008CEF8A8306C08FEF88838BE289838CEFD2
:100360008A83DF91CF910895CF93DF93EB0190E0E3
:100370008C30910508F065C0FC01EA59FF4F0C94E0
:1003800029068FEF8B838C8399E09D838E838F83E7
:1003900058C08FEF8B839FE19C838D838E838F83E7
:1003A00050C08FEF8B838C839FE39D839FEB9E8355
:1003B0008F8347C08FEF8B8390EE9C838D838E83DA
:1003C0008F833FC08FEF8B838C838D839FE09E83D1
:1003D0008F8337C08FEF8B838C838D8390EF9E83C9
:1003E0008F832FC08FEF8B838C838D838E838FE1E0
:1003F0008F8327C08FEF8B838C838D838E8380EEDA
:100400008F831FC080EE8B838FEF8C838D838E83D1
:100410008F8317C08FE08B838FEF8C838D838E83C8
:100420008F830FC08EEF8B838C838D838FEF8E83B2
:100430008F8307C08FEF8B838C8390EC9D838E839B
:100440008F83DF91CF9108952F923F924F925F92C9
:100450006F927F928F929F92AF92BF92CF92DF92D4
:10046000EF92FF920F931F93CF93DF93CDB7DEB739
:1004700028970FB6F894DEBF0FBECDBF2B013C010D
:100480001E0189E0280E311CFE0131964F01F30157
:1004900021913F016894AA24A1F86894BB24B1F883
:1004A0006894CC24C1F86894DD24D1F86894EE24D3
:1004B000E1F8F12C00E010E030E040E050E060E0D6
:1004C00070E080E090E00E942F062071307242744C
:1004D000547868707170AA24AA940F2EF3E0BF2E8E
:1004E000F02DC12CD12CE12C80E090E00E948806F8
:1004F000F40121934F01E215F30549F6411451042B
:1005000009F082C089C0DA01FA019191AF019F71AF
:10051000E8B3E07EE8BBE8B39E2B98BB9C91929534
:1005200096959770EBB3EF78EBBBEBB39295907F1A
:100530009E2B9BBB822F90E02F5F3F4F8830910511
:1005400008F053C0FC01EE58FF4F0C942906AF9AF7
:10055000AE98AD98AC98D898D998DA98DB986BC0DB
:10056000AF98AE9AAD98AC98D898D998DA98DB98AD
:1005700062C0AF98AE98AD9AAC98D898D998DA98EE
:10058000DB9859C0AF98AE98AD98AC9AD898D998E6
:10059000DA98DB9850C0AF98AE98AD98AC98D89ADE
:1005A000D998DA98DB9847C0AF98AE98AD98AC98D8
:1005B000D898D99ADA98DB983EC0AF98AE98AD98A3
:1005C000AC98D898D998DA9ADB9835C0AF98AE989D
:1005D000AD98AC98D898D998DA98DB9A89EF90E0E2
:1005E0000197F1F700C0000009C0E9EFF0E0319792
:1005F000F1F700C00000283008F485CF6F5F7F4F0F
:100600004616570619F408C060E070E0AE014F5F6F
:100610005F4F20E030E077CFAF98AE98AD98AC98C0
:10062000D898D998DA98DB9888B3807E88BB8BB34A
:100630008F788BBB07C089EF90E00197F1F700C07E
:10064000000061CF28960FB6F894DEBF0FBECDBF75
:10065000DF91CF911F910F91FF90EF90DF90CF909E
:10066000BF90AF909F908F907F906F905F904F90D2
:100670003F902F900895949A479A8BB780688BBFCC
:1006800085B7837F85BF85B78F78806285BF85B743
:10069000806885BF78948895F89485B78F7785BFF3
:1006A00008951F920F920FB60F9211248F9380918D
:1006B0006200882331F01092610081E08093600035
:1006C00003C085B78F7785BF8F910F900FBE0F90B6
:1006D0001F9018958FE78ABB8FEF87BB8CEF84BB89
:1006E00084E181BB1BBA18BA15BA80E182BB939A28
:1006F0000895CF92DF92EF92FF920F931F93CF93C3
:10070000DF93EC018B0187E487B986B1836086B9FA
:10071000379A369A3699FECF64B175B1379880E032
:1007200090E00E940A0523E333E343E550E40E948E
:10073000BC0520E030E04CE252E40E94BC0520E021
:1007400030EC4FE754E40E94980420E030E044E0AD
:1007500052E40E9498046B017C012AE939E949E5D9
:1007600050E40E94930488231CF481E0888301C034
:10077000188223E333E343E550E4C701B6010E9446
:100780009304882324F481E0F801808302C0F801F7
:100790001082DF91CF911F910F91FF90EF90DF902A
:1007A000CF900895CF93DF93CDB7DEB72E970FB6D6
:1007B000F894DEBF0FBECDBFFE01359688E0DF01A5
:1007C0001D928A95E9F71D861E860E946A03929AF9
:1007D0000E948E009298FF24F3940DEC10E10E9489
:1007E0003B03BE01625F7F4FCE010D960E947903ED
:1007F0008D85882309F493C094988E85882371F0A1
:100800009AE082B3812782BBE3E2F4EF3197F1F7FC
:1008100000C000009150A9F7949AE1CF929A0E94EB
:100820008E009E012C5F3F4FAE014D5F5F4FBE01BA
:100830006E5F7F4FCE0101960E9415019298BE0116
:100840006B5F7F4F8A810E9453018A81843218F046
:1008500089818F5F8983BE016B5F7F4F89810E9491
:10086000B40168EE73E0CE0105960E9424028399DC
:10087000B6CF85B7886085BF85B78B7F85BF7894F5
:10088000F092620010926100809160008823E1F094
:10089000109260008A81809F812D11248695869513
:1008A000982F990F990F890F8B5F8A838C3310F0E3
:1008B0001A8206C08352853018F489818F5F89833C
:1008C00089818C3008F01982BE016B5F7F4F8A816D
:1008D0000E945301BE016B5F7F4F89810E94B4016A
:1008E0006FE170E0CE0105960E94240283ED90E353
:1008F0000197F1F700C00000809161008F5F809345
:100900006100843108F2F89410926200929A20E01B
:1009100040E06A8189810E94EA00929860CF8E85CA
:1009200081116ECF7BCF0E94470508F481E00895C6
:100930000E94AC040C9482050E947B0558F00E9432
:10094000740540F029F45F3F29F00C946B055111B8
:100950000C94B6050C9471050E94930568F39923D5
:10096000B1F3552391F3951B550BBB27AA276217AB
:100970007307840738F09F5F5F4F220F331F441FB8
:10098000AA1FA9F335D00E2E3AF0E0E832D09150EC
:100990005040E695001CCAF72BD0FE2F29D0660FD9
:1009A000771F881FBB1F261737074807AB07B0E81C
:1009B00009F0BB0B802DBF01FF2793585F4F3AF022
:1009C0009E3F510578F00C946B050C94B6055F3F83
:1009D000E4F3983ED4F3869577956795B795F795A8
:1009E0009F5FC9F7880F911D9695879597F9089590
:1009F000E1E0660F771F881FBB1F6217730784072C
:100A0000BA0720F0621B730B840BBA0BEE1F88F73A
:100A1000E0950895E89409C097FB3EF49095809581
:100A2000709561957F4F8F4F9F4F9923A9F0F92FB4
:100A300096E9BB279395F695879577956795B79532
:100A4000F111F8CFFAF4BB0F11F460FF1BC06F5F18
:100A50007F4F8F4F9F4F16C0882311F096E911C02A
:100A6000772321F09EE8872F762F05C0662371F04B
:100A700096E8862F70E060E02AF09A95660F771F5F
:100A8000881FDAF7880F9695879597F90895990F3B
:100A90000008550FAA0BE0E8FEEF16161706E80748
:100AA000F907C0F012161306E407F50798F0621B69
:100AB000730B840B950B39F40A2661F0232B242B3E
:100AC000252B21F408950A2609F4A140A6958FEF5D
:100AD000811D811D089597F99F6780E870E060E0AF
:100AE00008959FEF80EC089500240A9416161706C7
:100AF00018060906089500240A941216130614060F
:100B000005060895092E0394000C11F4882352F071
:100B1000BB0F40F4BF2B11F460FF04C06F5F7F4F29
:100B20008F4F9F4F089557FD9058440F551F59F010
:100B30005F3F71F04795880F97FB991F61F09F3FCA
:100B400079F087950895121613061406551FF2CFF3
:100B50004695F1DF08C0161617061806991FF1CF43
:100B600086957105610508940895E894BB2766276A
:100B70007727CB0197F908950E94CF050C94820541
:100B80000E94740538F00E947B0520F0952311F037
:100B90000C946B050C94710511240C94B6050E94FD
:100BA000930570F3959FC1F3950F50E0551F629F19
:100BB000F001729FBB27F00DB11D639FAA27F00DB6
:100BC000B11DAA1F649F6627B00DA11D661F829FDD
:100BD0002227B00DA11D621F739FB00DA11D621FC2
:100BE000839FA00D611D221F749F3327A00D611DDF
:100BF000231F849F600D211D822F762F6A2F1124C1
:100C00009F5750409AF0F1F088234AF0EE0FFF1FF3
:100C1000BB1F661F771F881F91505040A9F79E3F4A
:100C2000510580F00C946B050C94B6055F3FE4F31E
:100C3000983ED4F3869577956795B795F795E795A0
:100C40009F5FC1F7FE2B880F911D9695879597F9A9
:100C50000895EE0FFF1F0590F491E02D0994DF93A6
:100C6000CF931F930F939A9DF02D219FF00D8B9D95
:100C7000F00D8A9DE02DF10D039FF00D029FE00D18
:100C8000F11D4E9DE00DF11D5E9DF00D4F9DF00D8F
:100C90007F936F93BF92AF925F934F93D5010E9462
:100CA000E7068B01AC01D7010E94E706EB01E80FD4
:100CB000F91FD6010E947F062F913F91D6010E9415
:100CC000E706C60FD71FE81FF91FAF91BF910E941B
:100CD0007F062F913F910E94E706C60FD71FE81F9E
:100CE000F91FD6010E94E706E60FF71F9801BE0123
:100CF000CF0111240F911F91CF91DF9108950E9490
:100D0000E706460F571FC81FD91F08F431960895EC
:100D1000689401C0E8948F929F92CF93DF930E94D2
:100D20009606DF91CF919F908F9008958824992403
:100D3000F401E401B0E49F93AA279A158B049C0464
:100D4000ED05FE05CF05D007A10798F4AD2FDC2FE8
:100D5000CF2FFE2FE92D982C892E982F872F762FB5
:100D6000652F542F432F322F2227B85031F7BF91D0
:100D700027C01B2EBF91BB27220F331F441F551FB7
:100D8000661F771F881F991F881C991CEE1FFF1F65
:100D9000CC1FDD1FAA1FBB1F8A149B04EC05FD0599
:100DA000CE05DF05A007B10748F08A189B08EC09BB
:100DB000FD09CE09DF09A00BB10B21601A94E1F601
:100DC0002EF49401AF01BE01CD01000C0895A29F45
:100DD000B001B39FC001A39F700D811D1124911D0F
:100DE000B29F700D811D1124911D0895F894FFCFBD
:00000001FF
