:100000000C947A000C9484000C9402030C948400E9
:100010000C9484000C9484000C9484000C94840050
:100020000C9484000C9484000C9484000C94840040
:100030000C9484000C9484000C9484000C94840030
:100040000C9484000C9484000C9484000C94840020
:100050000C9484001A011A011A011A011A011F01D5
:100060001F011F011F011F01260126012601260174
:1000700026012D012D012D012D012D013401340109
:100080003401340134013B013B013B013B013B01A5
:100090004201420142014201420149014901490133
:1000A00049014901500150015001500150015701CF
:1000B00057015701570157015E015E015E015E0164
:1000C0005E01650165016501650165017B018301D3
:1000D0008B0194019C01A401AC01B401BC01C401D9
:1000E000CC01D4016002690272027B0284028D029B
:1000F00096029F0211241FBECFE5D8E0DEBFCDBF20
:100100000E9478030C9441060C94000088E480B9A6
:10011000089516BE94EA96BF06B607FEFDCF91B1CC
:10012000987F983079F483B984E886BF06B607FED5
:10013000FDCF91B1987F983139F081E0903429F466
:1001400080E0089581E0089580E0089583B984E80F
:1001500086BF06B607FEFDCF91B1987F81E0983249
:1001600009F480E0089584EC86BF06B607FEFDCF53
:1001700083B1089584E886BF06B607FEFDCF83B13C
:10018000089584E986BF0895982F92959F70990FDE
:10019000292F220F220F920F8F70890F0895CF926F
:1001A000DF92EF92FF920F931F93CF93DF937C0127
:1001B000EB016A01890180ED0E94890080E00E94C4
:1001C000A6000E94C10081ED0E9489000E94B30038
:1001D0000E94C400F60180830E94B3000E94C40004
:1001E00088830E94BA00C82F0E94C1008C2F8F7193
:1001F0000E94C400F7018083C5FF04C081E0F801BC
:10020000808302C0F8011082DF91CF911F910F917E
:10021000FF90EF90DF90CF900895CF93DF93EB01A5
:1002200090E08C33910508F056C0FC01E65DFF4F6D
:100230000C9474058FEF888389838A834CC08FEF79
:1002400088838BE2898381EE8A8345C083ED88832E
:100250008FEF898381EE8A833EC08FEF888380E1B0
:10026000898381EE8A8337C080EC88838FEF89830E
:1002700081EE8A8330C080EC88838BE2898381EEB3
:100280008A8329C08FE388838FEF898381E28A8301
:1002900022C080EC88838BE289838CEF8A831BC029
:1002A00080EC88838FEF89838CEF8A8314C08FEF73
:1002B000888380E189838CEF8A830DC083ED8883F6
:1002C0008FEF89838CEF8A8306C08FEF88838BE260
:1002D00089838CEF8A83DF91CF910895CF93DF9349
:1002E000EB0190E08C30910508F065C0FC01EA5903
:1002F000FF4F0C9474058FEF8B838C8399E09D8363
:100300008E838F8358C08FEF8B839FE19C838D8377
:100310008E838F8350C08FEF8B838C839FE39D836D
:100320009FEB9E838F8347C08FEF8B8390EE9C83E0
:100330008D838E838F833FC08FEF8B838C838D83E0
:100340009FE09E838F8337C08FEF8B838C838D8359
:1003500090EF9E838F832FC08FEF8B838C838D8351
:100360008E838FE18F8327C08FEF8B838C838D8368
:100370008E8380EE8F831FC080EE8B838FEF8C8304
:100380008D838E838F8317C08FE08B838FEF8C8359
:100390008D838E838F830FC08EEF8B838C838D83B1
:1003A0008FEF8E838F8307C08FEF8B838C8390ECCE
:1003B0009D838E838F83DF91CF9108954F925F92BB
:1003C0006F927F928F929F92AF92BF92CF92DF9265
:1003D000EF92FF920F931F93CF93DF93CDB7DEB7CA
:1003E00028970FB6F894DEBF0FBECDBF3C01CE01FB
:1003F00001964C012E0199E0490E511CF301219107
:100400003F016894AA24A1F86894BB24B1F86894C9
:10041000CC24C1F86894DD24D1F86894EE24E1F886
:10042000F12C00E010E030E040E050E060E070E0EF
:1004300080E090E00E947A05207130724274547816
:1004400068707170AA24AA940F2EF3E0BF2EF02DCD
:10045000C12CD12CE12C80E090E00E94D305F40166
:1004600021934F01E415F50549F623EE34E082C0EF
:100470004F5FEFEFE40FA1E0B0E0AC0FBD1FAE0F98
:10048000B11D8C918F7198B3907E98BB98B3892BD6
:1004900088BB8C918295869587709BB39F789BBB18
:1004A0009BB38295807F892B8BBB8E2F90E0883009
:1004B000910508F053C0FC01EE58FF4F0C947405F1
:1004C000AF9AAE98AD98AC98D898D998DA98DB984E
:1004D00062C0AF98AE9AAD98AC98D898D998DA988F
:1004E000DB9859C0AF98AE98AD9AAC98D898D99887
:1004F000DA98DB9850C0AF98AE98AD98AC9AD8987F
:10050000D998DA98DB9847C0AF98AE98AD98AC9878
:10051000D89AD998DA98DB983EC0AF98AE98AD9843
:10052000AC98D898D99ADA98DB9835C0AF98AE983D
:10053000AD98AC98D898D998DA9ADB982CC0AF9837
:10054000AE98AD98AC98D898D998DA98DB9A89EF9C
:1005500090E00197F1F700C0000009C0E9EFF0E07A
:100560003197F1F700C00000483008F481CF2150E6
:10057000310911F041E07DCFAF98AE98AD98AC98BD
:10058000D898D998DA98DB9888B3807E88BB8BB3EB
:100590008F788BBB07C089EF90E00197F1F700C01F
:1005A000000066CF28960FB6F894DEBF0FBECDBF11
:1005B000DF91CF911F910F91FF90EF90DF90CF903F
:1005C000BF90AF909F908F907F906F905F904F9073
:1005D0000895949A479A8BB780688BBF85B7877FB9
:1005E00085BF85B78B7F85BF85B78F78806285BFD4
:1005F00085B7806885BF78948895F89485B78F779C
:1006000085BF08951F920F920FB60F9211248F93FA
:1006100085B78F7785BF8F910F900FBE0F901F907A
:1006200018958FE78ABB8FEF87BB8CEF84BB84E183
:1006300081BB1BBA18BA15BA80E182BB0895CF926C
:10064000DF92EF92FF920F931F93CF93DF93EC0112
:100650008B0187E487B986B1836086B9379A369A69
:100660003699FECF64B175B1379880E090E00E9472
:10067000550423E333E343E550E40E94070520E0FB
:1006800030E04CE252E40E94070520E030EC4FE7F6
:1006900054E40E94E30320E030E044E052E40E948E
:1006A000E3036B017C012AE939E949E550E40E9442
:1006B000DE0388231CF481E0888301C0188223E3D1
:1006C00033E343E550E4C701B6010E94DE0388230B
:1006D00024F481E0F801808302C0F8011082DF91E8
:1006E000CF911F910F91FF90EF90DF90CF900895E1
:1006F000CF93DF93CDB7DEB72E970FB6F894DEBF5A
:100700000FBECDBFFE01359688E0DF011D928A95B0
:10071000E9F71D861E860E941103929A0E948600A8
:100720009298929A929810E10E94E902BE01625F4B
:100730007F4FCE010D960E941F038D858823D1F136
:1007400094988E85882371F09AE082B3812782BBCA
:10075000E3E2F4EF3197F1F700C000009150A9F700
:10076000949AE2CF929A0E9486009E012C5F3F4F9E
:10077000AE014D5F5F4FBE016E5F7F4FCE010196B0
:100780000E94CF009298BE016B5F7F4F8A810E94CA
:100790000D018A818F3118F089818F5F8983BE01B5
:1007A0006B5F7F4F89810E946E01CE0105960E948A
:1007B000DE01BACF8E858111C7CFD4CF0E949204BB
:1007C00008F481E008950E94F7030C94CD040E9480
:1007D000C60458F00E94BF0440F029F45F3F29F09E
:1007E0000C94B60451110C9401050C94BC040E94A5
:1007F000DE0468F39923B1F3552391F3951B550B50
:10080000BB27AA2762177307840738F09F5F5F4FE3
:10081000220F331F441FAA1FA9F335D00E2E3AF022
:10082000E0E832D091505040E695001CCAF72BD03A
:10083000FE2F29D0660F771F881FBB1F261737078B
:100840004807AB07B0E809F0BB0B802DBF01FF27BD
:1008500093585F4F3AF09E3F510578F00C94B604E0
:100860000C9401055F3FE4F3983ED4F386957795A9
:100870006795B795F7959F5FC9F7880F911D969576
:10088000879597F90895E1E0660F771F881FBB1FD2
:10089000621773078407BA0720F0621B730B840B7F
:1008A000BA0BEE1F88F7E0950895E89409C097FB0E
:1008B0003EF490958095709561957F4F8F4F9F4F37
:1008C0009923A9F0F92F96E9BB279395F69587957B
:1008D00077956795B795F111F8CFFAF4BB0F11F43E
:1008E00060FF1BC06F5F7F4F8F4F9F4F16C08823E5
:1008F00011F096E911C0772321F09EE8872F762F1B
:1009000005C0662371F096E8862F70E060E02AF05B
:100910009A95660F771F881FDAF7880F9695879547
:1009200097F90895990F0008550FAA0BE0E8FEEF1C
:1009300016161706E807F907C0F012161306E407A3
:10094000F50798F0621B730B840B950B39F40A269C
:1009500061F0232B242B252B21F408950A2609F47A
:10096000A140A6958FEF811D811D089597F99F677E
:1009700080E870E060E008959FEF80EC0895002427
:100980000A941616170618060906089500240A94F4
:1009900012161306140605060895092E0394000C7A
:1009A00011F4882352F0BB0F40F4BF2B11F460FF09
:1009B00004C06F5F7F4F8F4F9F4F089557FD905832
:1009C000440F551F59F05F3F71F04795880F97FB13
:1009D000991F61F09F3F79F08795089512161306CD
:1009E0001406551FF2CF4695F1DF08C016161706FC
:1009F0001806991FF1CF8695710561050894089531
:100A0000E894BB2766277727CB0197F908950E94C2
:100A10001A050C94CD040E94BF0438F00E94C6044D
:100A200020F0952311F00C94B6040C94BC0411240E
:100A30000C9401050E94DE0470F3959FC1F3950F9D
:100A400050E0551F629FF001729FBB27F00DB11D52
:100A5000639FAA27F00DB11DAA1F649F6627B00DE2
:100A6000A11D661F829F2227B00DA11D621F739FCB
:100A7000B00DA11D621F839FA00D611D221F749FD9
:100A80003327A00D611D231F849F600D211D822F20
:100A9000762F6A2F11249F5750409AF0F1F0882347
:100AA0004AF0EE0FFF1FBB1F661F771F881F915074
:100AB0005040A9F79E3F510580F00C94B6040C9469
:100AC00001055F3FE4F3983ED4F3869577956795EB
:100AD000B795F795E7959F5FC1F7FE2B880F911D9E
:100AE0009695879597F90895EE0FFF1F0590F4915D
:100AF000E02D0994DF93CF931F930F939A9DF02DD0
:100B0000219FF00D8B9DF00D8A9DE02DF10D039F2F
:100B1000F00D029FE00DF11D4E9DE00DF11D5E9D5B
:100B2000F00D4F9DF00D7F936F93BF92AF925F9347
:100B30004F93D5010E9432068B01AC01D7010E9470
:100B40003206EB01E80FF91FD6010E94CA052F916A
:100B50003F91D6010E943206C60FD71FE81FF91F2A
:100B6000AF91BF910E94CA052F913F910E9432061A
:100B7000C60FD71FE81FF91FD6010E943206E60FE5
:100B8000F71F9801BE01CF0111240F911F91CF9142
:100B9000DF9108950E943206460F571FC81FD91FC4
:100BA00008F431960895689401C0E8948F929F925A
:100BB000CF93DF930E94E105DF91CF919F908F90BB
:100BC000089588249924F401E401B0E49F93AA27AE
:100BD0009A158B049C04ED05FE05CF05D007A107EF
:100BE00098F4AD2FDC2FCF2FFE2FE92D982C892ED6
:100BF000982F872F762F652F542F432F322F2227A0
:100C0000B85031F7BF9127C01B2EBF91BB27220FD1
:100C1000331F441F551F661F771F881F991F881C8D
:100C2000991CEE1FFF1FCC1FDD1FAA1FBB1F8A14BC
:100C30009B04EC05FD05CE05DF05A007B10748F0D4
:100C40008A189B08EC09FD09CE09DF09A00BB10B3E
:100C500021601A94E1F62EF49401AF01BE01CD019A
:100C6000000C0895A29FB001B39FC001A39F700D17
:100C7000811D1124911DB29F700D811D1124911DA4
:060C80000895F894FFCF77
:00000001FF
